:100000000C9424060C944C060C944C060C944C0650
:100010000C944C060C944C060C944C060C944C0618
:100020000C944C060C944C060C94FA080C946C0935
:100030000C944C060C944C060C944C060C944C06F8
:100040000C944C060C944C060C944C060C944C06E8
:100050000C944C060C944C060C944C060C94E90B36
:100060000C944C060C944C060C944C060C944C06C8
:100070000C944C060C944C060C944C060C944C06B8
:100080000C94330C0C944C060C944C060C944C06BB
:100090000C944C060C944C060C944C060C944C0698
:1000A0000C944C060C944C060C944C06250D2C0D0F
:1000B000860D2F0D5F0D6E0D820D720D010204086D
:1000C0001020408000000000003E5B4F5B3E3E6B16
:1000D0004F6B3E1C3E7C3E1C183C7E3C181C577DE2
:1000E000571C1C5E7F5E1C00183C1800FFE7C3E72E
:1000F000FF0018241800FFE7DBE7FF30483A060E40
:100100002629792926407F050507407F05253F5A86
:100110003CE73C5A7F3E1C1C08081C1C3E7F1422F6
:100120007F22145F5F005F5F06097F017F006689A1
:10013000956A606060606094A2FFA29408047E04E7
:100140000810207E201008082A1C08081C2A08080D
:100150001E101010100C1E0C1E0C30383E383006CD
:100160000E3E0E06000000000000005F00000007C9
:10017000000700147F147F14242A7F2A12231308F7
:10018000646236495620500008070300001C2241D3
:10019000000041221C002A1C7F1C2A08083E080877
:1001A0000080703000080808080800006060002027
:1001B000100804023E5149453E00427F400072490A
:1001C0004949462141494D331814127F10274545AE
:1001D00045393C4A494931412111090736494949C4
:1001E00036464949291E0000140000004034000032
:1001F000000814224114141414140041221408029B
:10020000015909063E415D594E7C1211127C7F490D
:100210004949363E414141227F4141413E7F494962
:1002200049417F090909013E414151737F0808088E
:100230007F00417F41002040413F017F081422415F
:100240007F404040407F021C027F7F0408107F3EB9
:100250004141413E7F090909063E4151215E7F0926
:10026000192946264949493203017F01033F40408D
:10027000403F1F2040201F3F4038403F6314081478
:100280006303047804036159494D43007F414141B0
:100290000204081020004141417F04020102044091
:1002A00040404040000307080020545478407F2815
:1002B0004444383844444428384444287F3854540B
:1002C000541800087E090218A4A49C787F0804042E
:1002D0007800447D40002040403D007F10284400CD
:1002E00000417F40007C047804787C08040478385E
:1002F00044444438FC1824241818242418FC7C088E
:10030000040408485454542404043F44243C40400A
:10031000207C1C2040201C3C4030403C44281028BD
:10032000444C9090907C4464544C44000836410006
:100330000000770000004136080002010204023C80
:100340002623263C1EA1A161123A4040207A38544F
:1003500054555921555579412154547841215554CA
:10036000784020545579400C1E527212395555551B
:1003700059395454545939555454580000457C4106
:100380000002457D420001457C40F0292429F0F01F
:10039000282528F07C545545002054547C547C0A70
:1003A000097F4932494949323248484832324A483D
:1003B00048303A4141217A3A42402078009DA0A03D
:1003C0007D39444444393D4040403D3C24FF242491
:1003D000487E4943662B2FFC2F2BFF0929F620C0AE
:1003E000887E090320545479410000447D413048FF
:1003F000484A32384040227A007A0A0A727D0D1942
:10040000317D2629292F28262929292630484D40A3
:1004100020380808080808080808382F10C8ACBA9F
:100420002F102834FA00007B000008142A1422221E
:10043000142A14089500220095AA005500AAAA556E
:10044000AA55AA000000FF00101010FF0014141499
:10045000FF001010FF00FF1010F010F0141414FC37
:10046000001414F700FF0000FF00FF1414F404FC54
:10047000141417101F10101F101F1414141F001035
:100480001010F0000000001F101010101F101010AE
:1004900010F010000000FF101010101010101010BD
:1004A000FF10000000FF140000FF00FF00001F10FD
:1004B000170000FC04F414141710171414F404F4B7
:1004C0000000FF00F714141414141414F700F714A8
:1004D0001414171410101F101F141414F4141010F7
:1004E000F010F000001F101F0000001F140000009B
:1004F000FC140000F010F01010FF10FF141414FF93
:10050000141010101F00000000F010FFFFFFFFFF8D
:10051000F0F0F0F0F0FFFFFF0000000000FFFF0F21
:100520000F0F0F0F38444438447C2A2A3E147E02B1
:10053000020606027E027E02635549416338444446
:100540003C04407E201E2006027E020299A5E7A5FB
:10055000991C2A492A1C4C7201724C304A4D4D306C
:100560003048784830BC625A463D3E494949007E91
:100570000101017E2A2A2A2A2A44445F4444405128
:100580004A444040444A51400000FF0103E080FFDC
:10059000000008086B6B083612362436060F090F68
:1005A00006000018180000001010003040FF010184
:1005B000001F01011E00191D1712003C3C3C3C00AD
:1005C00000000000D5F08D14A1C881CFD9F1AF2073
:1005D00000080B00020202010009040000010202EF
:1005E0000000052400100105240101010424020675
:1005F00005240600010705810310004009040100DD
:10060000020A0000000705020240000007058302FD
:100610004000000403090412010002EF02014041FE
:1006200023368000010102030141726475696E6F17
:10063000204C4C430041726475696E6F204C656FAD
:100640006E6172646F000000000000000000000096
:10065000000000000000000000FF0000000000009B
:1006600000330000000000003F00003F00000000D9
:100670000000000000000030FF3030FF30000003B9
:100680003F03033F03000030CCFFCC0C0000000C04
:100690000C3F0C030000003C3C00C0300C0000305C
:1006A0000C03003C3C00003CC3C33C000000000FB6
:1006B0003030330C33000000003F00000000000029
:1006C00000000000000000F00C0300000000000328
:1006D0000C3000000000000000030CF000000000DF
:1006E00000300C030000000C30FF300C0000000C48
:1006F000033F030C000000C0C0FCC0C000000000AD
:10070000000F0000000000000000000000000000DA
:1007100000300F00000000C0C0C0C0C0C00000001A
:1007200000000000000000000000000000000000C9
:1007300000300000000000000000C0300C0000305D
:100740000C030000000000FC03C3C333FC00000FD7
:10075000333030300F000000000CFF0000000000BC
:1007600000303F300000000C03C3C3C33C00003C1A
:10077000333030303000000303C3C3F30F00000CEC
:10078000303030300F000000C0300CFF000000039C
:100790000303033F0300003F33333333C300000C34
:1007A000303030300F0000F0CCC3C3C30300000F63
:1007B000303030300F0000030303C3330F0000005C
:1007C000003F00000000003CC3C3C3C33C00000F57
:1007D000303030300F00003CC3C3C3C3FC000030D6
:1007E0003030300C0300000000300000000000003A
:1007F00000030000000000000000300000000000C6
:1008000000100F0000000000C0300C0300000000CA
:1008100000030C3000000030303030303000000376
:100820000303030303000000030C30C000000000BA
:10083000300C03000000000C03000000000000006A
:1008400000000000000000FC03C333C3FC00000FE5
:1008500030303333300000F00C03030CF000003F65
:10086000030303033F0000FFC3C3C3C33C00003FB7
:10087000303030300F0000FC030303030C00000F86
:10088000303030300C0000FF03030303FC00003F56
:10089000303030300F0000FFC3C3C3C30300003F3C
:1008A00030303030300000FFC3C3C3C30300003F0B
:1008B00000000000000000FC030383838300000F9E
:1008C000303031313F0000FFC0C0C0C0FF00003FEA
:1008D000000000003F00000003FF030000000000D4
:1008E000303F30000000000000000000FF00000C5E
:1008F000303030300F0000FFC0C0300C0300003F2C
:100900000000030C300000FF000000000000003F6A
:1009100030303030300000FF0CF0F00CFF00003FB2
:10092000000000003F0000FF0CF0C000FF00003F8F
:100930000000030C3F0000FC03030303FC00000F56
:10094000303030300F0000FFC3C3C3C33C00003F52
:1009500000000000000000FC03030303FC00000F84
:100960003030330C330000FFC3C3C3C33C00003F2F
:100970000000030C3000003CC3C3C3C30C00000CD8
:10098000303030300F00000303FF0303000000008D
:10099000003F0000000000FF00000000FF00000F0B
:1009A000303030300F0000FF00000000FF00000377
:1009B0000C30300C030000FF00C0C000FF00003FFF
:1009C0000C03030C3F00000F30C0C0300F00003C90
:1009D000030000033C00000F30C0300F0000000097
:1009E000003F00000000000303C3C3330F00003CBE
:1009F00033303030300000FFFF0303030300003FBB
:100A00003F3030303000000C30C0000000000000EB
:100A10000000030C30000003030303FFFF0000305D
:100A20003030303F3F000000C030C0000000000305
:100A30000000000300000000000000000000003083
:100A40003030303030000000030C30000000000077
:100A5000000000000000000030303030C000000C0A
:100A6000333333333F0000FF30303030C000003FBD
:100A7000303030300F0000C0303030303000000FE8
:100A800030303030300000C030303030FF00000FE8
:100A9000303030303F0000C030303030C000000F08
:100AA00033333333330000C0FCC3C3C30C00000036
:100AB0003F000000000000C030303030C0000003B4
:100AC000CCCCCCCC3F0000FF30303030C000003FF9
:100AD000000000003F00000030F3000000000000B4
:100AE000303F300000000000303030F300000030B4
:100AF000C0C0C03F000000FF000000C03000003F49
:100B00000303030C3000000003FF0000000000009E
:100B1000303F3000000000F030C0C030F000003F37
:100B2000000F0F003F0000F030303030C000003FB9
:100B3000000000003F0000C030303030C000000F27
:100B4000303030300F0000F030303030C00000FF67
:100B50000C0C0C0C030000C030303030F0000003EF
:100B60000C0C0C0CFF0000F0C03030303000003FA7
:100B700000000000000000C0303030303000003095
:100B8000333333330C00003030FF303000000000CE
:100B9000000F30300C0000F000000000F000000FEB
:100BA0003030300C3F0000F000000000F000000387
:100BB0000C30300C030000F000000000F000003F9B
:100BC000300F0F303F000030C00000C03000003058
:100BD0000C03030C300000F000000000F0000003E4
:100BE000CCCCCCCC3F000030303030F03000003086
:100BF0003C333330300000C0C0FC3F030300000032
:100C0000000F3F303000000000FF00000000000037
:100C1000003F000000000003033FFCC0C0000030A4
:100C2000303F0F00000000C030C000F000000003A3
:100C3000000003000000FFFFFFFFFFFFFFFF3F3F3B
:100C40003F3F3F3F3F3F2E1211241FBECFEFDAE060
:100C5000DEBFCDBF11E0A0E0B1E0E2EFF5E202C0FF
:100C600005900D92A635B107D9F726E0A6E5B1E0CB
:100C700001C01D92A835B207E1F716E0C4E2D6E044
:100C800004C02197FE010E94EC12C332D107C9F7BC
:100C90000E94F20F0C94F7120C940000FC01848562
:100CA000958597FD0BC09FB7F89482E08093E9008B
:100CB0008091F2009FBF90E0019608959FB7F8944D
:100CC00082E08093E9008091F2009FBF90E0089558
:100CD000409161015091620120915F01309160016A
:100CE00042175307B4F49091E8009570E1F39091A6
:100CF000E80092FD19C08093F1008091610190910C
:100D0000620101968F739927892B19F48EEF8093D6
:100D1000E8008091610190916201019690936201D7
:100D20008093610181E0089580E00895DF92EF9261
:100D3000FF920F931F93CF93DF93D82EF92EE42EBB
:100D4000062F10E0C8010196880F0E94680683E014
:100D50000E946806CD2DDF2D0C0F1D1FC017D10777
:100D600089F0E7FE03C0FE01849101C088810E94E2
:100D70006806F82E80E00E9468068F212196811176
:100D8000EDCF01C081E0DF91CF911F910F91FF90D6
:100D9000EF90DF900895DF92EF92FF920F931F93F1
:100DA000CF93DF93D82E8A017B01E40EF51EEB0171
:100DB000CE15DF0571F0D7FE03C0FE01849101C09E
:100DC00088810E94680621968111F2CF8FEF9FEFF4
:100DD00001C0C801DF91CF911F910F91FF90EF905B
:100DE000DF900895615030F02091F100FC012083E4
:100DF0000196F8CF289884E68093670108953FB75D
:100E0000F89480915B0190915C01A0915D01B0919B
:100E10005E0126B5A89B05C02F3F19F00196A11DC4
:100E2000B11D3FBFBA2FA92F982F8827820F911D80
:100E3000A11DB11DBC01CD0142E0660F771F881FC7
:100E4000991F4A95D1F70895CF92DF92EF92FF92C2
:100E50000F931F93CF93DF936C017A018B01C0E056
:100E6000D0E0CE15DF0581F0D8016D918D01D6015E
:100E7000ED91FC910190F081E02DC6010995892B3F
:100E800011F02196EECF7E01C701DF91CF911F9126
:100E90000F91FF90EF90DF90CF9008952F923F92A7
:100EA0004F925F926F927F928F929F92AF92BF927A
:100EB000CF92DF92EF92FF920F931F93CF93DF9326
:100EC00000D000D01F92CDB7DEB79B838A836A30F3
:100ED000A1F4DC0155962C91559751968D919C91DA
:100EE0005297B8E02B9F800D911D1124EA81FB8160
:100EF000928B818B108A1786C0C06D3009F4BDC0FB
:100F0000AA81BB811F968D919C9150978038910545
:100F1000BCF0EA81FB812589422F50E087859089CA
:100F2000F6E02F9F800D911D1124AA81BB81509660
:100F30009C938E931F9756962C91211189C09DC02A
:100F4000EA81FB81C188D288F0E4CF16D1040CF786
:100F5000AA81BB8155965C919C01B5E05B9F200DF9
:100F6000311D112412161306A4F6252E312C9601DC
:100F7000E8E05E9F200D311D1124121613064CF679
:100F8000AA81BB815496BC91BC83EA81FB81F38921
:100F9000FD8325E0629FB0011124DB01AC53BF4FFC
:100FA0002D01B12CF201A490F5E0BF1201C0A12CDB
:100FB000760168E0962EA0FE02C08D8001C08C8074
:100FC000811004C06C807D80671489F19C012983A5
:100FD000422F481B451758F5B701462F4E194517A4
:100FE00018F520383105E8F460347105D0F48B0130
:100FF000ECEBF0E040E1642E7980609ED001A078B7
:101000001124A70D0770E00FF11D4491A659BE4FA2
:10101000882019F0EC914E2B03C04095EC914E23A3
:101020004C936F5F7F4FD9CF2F5F3F4FD0CFA694A8
:101030009A94E20CF31C9110BECFB394820D931DD1
:1010400092012F5F3F4F290136E0B312ABCF61CF42
:101050006AEF64039001659F300D112420583F4FC3
:101060002817390754F48A819B81DC01ED91FC91AA
:101070000190F081E02D6AE0099581E090E00F9009
:101080000F900F900F900F90DF91CF911F910F91C4
:10109000FF90EF90DF90CF90BF90AF909F908F9098
:1010A0007F906F905F904F903F902F90089508959C
:1010B000FC01EB58FF4F20812130E9F53297208168
:1010C000DC01A20FB11D60521B966C93DC01AA5883
:1010D000BF4F4C91342F317041FF17C0273638F481
:1010E000273211F420E401C02F5F208301C0108259
:1010F000332309F1FC01EC58FF4F9081973211F432
:10110000108219C09F5F908316C0222331F02034D3
:1011100011F427E203C0215001C027E620833323C6
:1011200051F0FC01EC58FF4F8081811102C087E231
:1011300001C08150808381E090E00895089580E0AF
:1011400090E008950F931F93CF93DF931F92CDB735
:10115000DEB78C01FC018485958597FF0EC0CE011A
:1011600001960E944E0F019719F4898190E002C008
:101170008FEF9FEFF80195878487F8018485958527
:101180000F90DF91CF911F910F9108950F931F93AF
:10119000CF93DF931F92CDB7DEB782E0898342E41D
:1011A00050E061ED75E080E80E94CB060E949A0F46
:1011B000DC0112960D911C9113970115110589F010
:1011C000D801ED91FC910280F381E02DBE016F5FAB
:1011D0007F4FC801099597FD04C0F801008511856E
:1011E000ECCF89810F90DF91CF911F910F910895DE
:1011F0000E94F2121F920F920FB60F9211248F933A
:101200009F938091E1009091E100937F9093E100A2
:1012100083FF0FC01092E90091E09093EB001092D1
:10122000EC0092E39093ED001092680198E09093A7
:10123000F00082FF20C093E09093E9009091F200CB
:10124000992319F09AE39093E8009091650199230E
:1012500039F090916501915090936501992389F13E
:1012600090916701992339F0909167019150909383
:101270006701992341F184FF10C08091E2008E7EC6
:1012800081608093E2008091E1008F7E8093E10095
:10129000809166018E7E806111C080FF16C08091B2
:1012A000E2008E7E80618093E2008091E1008E7E7C
:1012B0008093E100809166018E7E8160809366015B
:1012C00004C05D9ACDCF289AD6CF9F918F910F9071
:1012D0000FBE0F901F9018951F920F920FB60F928E
:1012E0001124CF92DF92EF92FF920F931F932F93CF
:1012F0003F934F935F936F937F938F939F93AF939E
:10130000BF93EF93FF93CF93DF93CDB7DEB76C9787
:10131000DEBFCDBF1092E9008091E80083FFFBC1E2
:1013200068E0CE0145960E94F20682EF8093E800C5
:101330008D8987FF05C09091E80090FFFCCF03C026
:101340009EEF9093E800982F907609F0C6C09E8992
:101350004F89588D2F89F88C91110CC0803829F451
:10136000809164018093F10002C01092F10010920C
:10137000F10045C1913051F4811141C14130510515
:1013800009F03DC1809164018D7F0BC0933061F401
:10139000811135C14130510509F031C1809164019D
:1013A0008260809364012BC1953049F48091E800FC
:1013B00080FFFCCF822F80688093E30020C19630AD
:1013C00009F05EC00B8D1C8D22E01092E900109296
:1013D000620110926101F21232C01092600110920B
:1013E0005F010E94C60899E0BE016F5F7F4FDB017D
:1013F000E92F1D92EA95E9F79983FA8291E09E839D
:1014000090EA98879AEF9987209161013091620163
:10141000275F3F4F3C832B838D831092E90010920E
:101420006201109261011093600100935F0149E035
:1014300050E080E00E94CB060E94C608E0C01093F6
:10144000600100935F010E949A0FDC0112960D91DA
:101450001C9113970115110509F4BBC0D801ED913A
:10146000FC910480F581E02DBE016B5E7F4FC801C9
:101470000995009709F0C7C0F80100851185EACFEA
:10148000973009F445C1983021F481E08093F10050
:10149000B6C0993009F0B3C0837009F039C1EFE0EC
:1014A000F1E081E031E096E32081211109C08EE76F
:1014B0008093EA001092EA008F89809368019FC0B0
:1014C0008093E9003093EB0021912093EC009093FE
:1014D000ED008F5F873041F7EACF8B8D9C8D1092A6
:1014E000E900109262011092610190936001809373
:1014F0005F01898D811153C08E899D89913A49F48C
:10150000813209F005C147E050E066E071E080E01B
:10151000BBC0913209F0FCC0833269F48F89988D89
:10152000A0E0B0E08093020190930301A093040136
:10153000B093050164C0803269F48091E80082FFB5
:10154000FCCF67E086E091E00E94F2068BEF80938B
:10155000E80055C0823209F052C08F8980930D0196
:10156000EEEFFFE7859194918B3F9C4D19F0E0E001
:10157000F8E002C0EEEFFAE08091060190910701D9
:10158000A0910801B0910901803B9440A105B105EB
:1015900009F09EC080910D0180FF79C099C00E9422
:1015A0009A0FFC01028113810115110509F4B0C0E5
:1015B000D801ED91FC910190F081E02DBE016B5EB0
:1015C0007F4FC801099581111AC0F8010085118566
:1015D000EBCFF1E0FF1609F44EC0F3E0FF1298C024
:1015E0008F89882309F44AC0823089F440E860E199
:1015F00085E396E00E949606882309F489C08EEF61
:101600008093E80088C018161906CCF381C0813099
:1016100029F440E86BE089E296E0ECCF833009F0F2
:1016200077C00E949A0FDC011296ED90FC90139700
:101630008E010F5F1F4F6801E114F10479F0D701AB
:10164000ED91FC910680F781E02DB801C701099565
:10165000080F111DF701E084F184EECFD8011C9230
:10166000F60101900020E9F73197BF016C197D095F
:1016700040E0C601BFCF67E176E002C063E176E0FB
:10168000FB01449150E080E80E94CB06B8CFEE3FCA
:101690002AE0F20751F0808191818737A7E79A0706
:1016A00021F09093FF0A8093FE0A87E797E79183E2
:1016B000808380916000809363019BE088E10FB696
:1016C000F894A895809360000FBE9093600097CF28
:1016D000808191818737974709F091CFA8958091B4
:1016E0006000886180936000809163018093600056
:1016F000EE3FBAE0FB0739F08091FE0A9091FF0AB5
:10170000918380837CCF1092FF0A1092FE0A77CFDC
:1017100081E28093EB006C960FB6F894DEBF0FBEAB
:10172000CDBFDF91CF91FF91EF91BF91AF919F918D
:101730008F917F916F915F914F913F912F911F9169
:101740000F91FF90EF90DF90CF900F900FBE0F9012
:101750001F9018958F929F92AF92BF92CF92DF9277
:10176000EF92FF926B017C010E94FF064B015C012E
:10177000C114D104E104F104F1F00E94FF06DC0180
:10178000CB0188199909AA09BB09883E9340A10594
:10179000B10570F321E0C21AD108E108F10888EE22
:1017A000880E83E0981EA11CB11CC114D104E10471
:1017B000F10419F7DDCFFF90EF90DF90CF90BF904D
:1017C000AF909F908F900895BC0180E090E00C94C2
:1017D000AA0B1F920F920FB60F9211242F933F93D3
:1017E0008F939F93AF93BF9380915701909158012E
:1017F000A0915901B0915A013091560123E0230F75
:101800002D3720F40196A11DB11D05C026E8230F38
:101810000296A11DB11D209356018093570190930C
:101820005801A0935901B0935A0180915B019091A6
:101830005C01A0915D01B0915E010196A11DB11DF9
:1018400080935B0190935C01A0935D01B0935E0176
:10185000BF91AF919F918F913F912F910F900FBEAC
:101860000F901F9018951F920F920FB60F92112490
:101870008F939F939091690181E0892780936901FB
:101880009F918F910F900FBE0F901F9018952FB7BB
:10189000F89483E08093E9009091E800892F8072AA
:1018A00095FF04C09091F20080E4891B2FBF08953A
:1018B000CF93DF931F92CDB7DEB76983DC01ED9143
:1018C000FC910280F381E02D41E050E0BE016F5FAA
:1018D0007F4F09950F90DF91CF91089583E080931A
:1018E000E9008091F200882319F08AE38093E800F0
:1018F00008950E94470C90E008958F929F92AF92B6
:10190000BF92CF92DF92EF92FF920F931F93CF93EC
:10191000DF936C017B018A0180910D01882309F41A
:101920005CC080916801882309F457C080916601EA
:1019300080FF05C08091E00082608093E000E801B4
:10194000B12C8AEFA82E93E0892E2AE3922E2097BD
:1019500011F4BB20D9F10E94470C81110AC0AA944E
:10196000AA20D9F161E070E080E090E00E94AA0B2B
:10197000EECF282F30E0C217D3070CF48C2F9FB77F
:10198000F8948092E9002091E80025FF1DC0282FDF
:1019900030E0C21BD30BF701815020F041914093FE
:1019A000F100FACFE20EF31EBB2019F09092E8008E
:1019B0000AC08091E80085FD07C09092E800BB2432
:1019C000B394209709F0B12C9FBFC1CF5D9884E6F6
:1019D000809365011016110644F081E090E0F60155
:1019E0009383828380E090E001C0C801DF91CF91B2
:1019F0001F910F91FF90EF90DF90CF90BF90AF902D
:101A00009F908F90089520E030E060E870E0A82F6C
:101A1000B0E0AB01022E02C0559547950A94E2F75B
:101A20004A235B23452B31F42F5F3F4F283031058C
:101A300081F70895422F50E04830510508F066C004
:101A4000FA01EA5AFF4F0C94EC128F778093F40559
:101A500081E08093F60508951092F6050895982F79
:101A6000947083FF11C08091F505992341F0811195
:101A700002C087E201C081508093F5050895873246
:101A800009F442C08F5FF8CF8091F405992359F093
:101A9000873630F4873211F480E40EC08F5F0CC0BB
:101AA0001092F4050895882331F0803411F487E210
:101AB00003C0815001C087E68093F4050895982FF4
:101AC00091709093FA0581FB992790F99093F9050D
:101AD00082FB882780F98093F805089583708093AE
:101AE000F7050895ECE8F5E084EB95E011928E1788
:101AF0009F07E1F7ECECF5E084EF95E011928E178B
:101B00009F07E1F71092F4051092F5050895EAE6B3
:101B1000F1E080E0A0E0B8E000800EBC8111012C73
:101B20001197A0FDFDCF0192B9F70DB408955C980F
:101B300080EB8EBD0DB407FEFDCF80E18EBD0DB4F0
:101B400007FEFDCF5C9A8091F805811109C080E005
:101B500092E01EBC0DB407FEFDCF0197D1F70895AA
:101B60009091F9058091F505992309F1909169010A
:101B7000911104C09091FA05911119C09091F4054A
:101B8000282F30E0492F50E0981750F0B901615FDD
:101B90007F4F6417750724F0692F681B6093FB055E
:101BA000B901615C7F4F641775070CF4FBC0282FE7
:101BB000482F50E0415F5F4F982F622F70E046172B
:101BC00057072CF4282F30E0215F3F4F63C02832A5
:101BD00018F0E8EDE20F01C0E22F9091FB059E1393
:101BE00001C0E8E2F0E0EF57FA4FDF011B96E38512
:101BF00030E1E39FF0011124EA5BF94FE491EEBD7F
:101C000061E070E09C91FB0130E1939FE00DF11DDC
:101C10001124EA5BF94FE4910DB407FEFDCFEEBD50
:101C20006F5F7F4F6830710569F70DB407FEFDCF18
:101C30002F5FC2CF9832A0F1E8EDE90F4091FB058C
:101C40004E1301C0E8E2F0E0EF57FA4FDF011B96B8
:101C5000E38540E1E49FF0011124E25BF94FE49158
:101C6000EEBD49E050E06C91FA0170E1679FE00D34
:101C7000F11D1124EA5BF94FE4910DB407FEFDCF8D
:101C8000EEBD4F5F5F4F4031510569F70DB407FE60
:101C9000FDCF9F5F492F50E0241735075CF602C047
:101CA000E92FCCCF90E4980F282F30E0215B3F4FF5
:101CB000492F50E0241735079CF1983618F0E8EDCD
:101CC000E90F01C0E92F4091FB054E1301C0E8E286
:101CD000F0E0EF57FA4FDF011B96E38540E1E49F08
:101CE000F0011124EA5BF94FE491EEBD41E050E0D0
:101CF0006C91FA0170E1679FE00DF11D1124EA5B20
:101D0000F94FE4910DB407FEFDCFEEBD4F5F5F4F7D
:101D10004830510569F70DB407FEFDCF9F5FC8CF6E
:101D200090E4980F282F30E0215B3F4F492F50E07F
:101D3000241735079CF1983618F0E8EDE90F01C03B
:101D4000E92F8091FB058E1301C0E8E2F0E0EF5728
:101D5000FA4FDF011B96E38580E1E89FF001112433
:101D6000E25BF94FE491EEBD49E050E08C91FA015D
:101D700060E1869FE00DF11D1124EA5BF94FE491CB
:101D80000DB407FEFDCFEEBD4F5F5F4F40315105F3
:101D900069F70DB407FEFDCF9F5FC8CF8FEF80932B
:101DA000FB050895215B3F4F241735070CF4FFCE48
:101DB000981B9093FB05FBCE8F929F92AF92BF92A0
:101DC0000F931F93CF93DF93CDB7DEB7A1970FB6D5
:101DD000F894DEBF0FBECDBF19A2423008F44AE02E
:101DE0008E010F5D1F4F842E912CA12CB12CA501CB
:101DF00094010E94CA12E62FB901CA0101501109CB
:101E0000EA3014F4E05D01C0E95CD801EC93232BC7
:101E1000242B252B61F70115110571F0F8010190B4
:101E20000020E9F73197AF01401B510BB80181E861
:101E300095E00E94240702C080E090E0A1960FB6D2
:101E4000F894DEBF0FBECDBFDF91CF911F910F91F0
:101E5000BF90AF909F908F900895CF92DF92EF92B6
:101E6000FF92CF93DF936B017C016DE281E895E0F7
:101E70000E945808EC0166277727CB016C197D0971
:101E80008E099F094AE00E94DC0E8C0F9D1FDF9196
:101E9000CF91FF90EF90DF90CF900895209168014F
:101EA000211103C08FEF9FEF08955FB7F89422E0F0
:101EB0002093E9002091F20030E01216130614F48A
:101EC00021E030E0422FFC0184E6415038F02898B0
:101ED000809367019091F1009193F7CF211531051F
:101EE00021F08091F200882319F05FBFC9010895A5
:101EF0008BE68093E800F9CFCF93DF931F92CDB7A5
:101F0000DEB7FC018485958597FD05C02FEF3FEF77
:101F1000358724870BC0CE0101960E944E0F019792
:101F200019F4898190E002C08FEF9FEF0F90DF914D
:101F3000CF9108958091000681110DC082E08093B9
:101F4000FC0584E08093FD051092FF051092FE05CC
:101F500081E0809300068CEF95E008950F931F9326
:101F6000CF93DF938C0181E090E00E94C21280FF4A
:101F700031C08AE090E00E94C2129FEF980F9E3F0E
:101F800048F522E330E0D80150963C932E931F97FA
:101F900028E330E052963C932E935197CBE0D0E06B
:101FA000D801ED91FC910190F081E02D682FC801DE
:101FB0000995CE010E94C2122196C131D10581F747
:101FC0000E94870D88EE93E0DF91CF911F910F91D2
:101FD0000C94E40BDF91CF911F910F91089504971A
:101FE0000C94AE0F789484B5826084BD84B5816012
:101FF00084BD85B5826085BD85B5816085BD8091D4
:102000006E00816080936E0010928100809181004B
:102010008260809381008091810081608093810043
:102020008091800081608093800080919100826027
:1020300080939100809191008160809391008091C4
:1020400090008160809390008091C10084608093B3
:10205000C1008091C10082608093C1008091C10065
:1020600081608093C1008091C30081608093C30030
:102070008091C00082608093C0008091C200816026
:102080008093C20080917A00846080937A0080916E
:102090007A00826080937A0080917A0081608093D8
:1020A0007A0080917A00806880937A0010926801AB
:1020B00010926401109266018091D7008160809334
:1020C000D70080EA8093D80089B5806189BD89B541
:1020D000826089BD09B400FEFDCF61E070E080E060
:1020E00090E00E94AA0B8091D8008F7C8061809341
:1020F000D8008091E000807F8093E0008091E10033
:102100008E7E8093E1008DE08093E200559A209AC4
:1021100081EC80937C0085B1806F85B984B1877E26
:1021200084B984B1876E84B95E9A5F988AB1806DF4
:102130008AB9769A6E9881B3806F81BB899880B393
:102140008D7080BB80E58CBD81E08DBD85E090E029
:102150000E94E40B5F9A85E090E00E94E40B5E9899
:102160005C98E4ECF5E081ED95E024912EBD000053
:102170000DB407FEFDCF31968E179F07B1F75C9A1D
:1021800081E88093640080916500816080936500A0
:102190000E94870D109290008DE08093910080E066
:1021A00090E2909399008093980082E08093710070
:1021B00081E08093F6051092F4051092F5058FEFFB
:1021C0008093FB05ECE8F5E0119285E0E43FF80729
:1021D000D9F78FE58093B405C2E0C09387051092CC
:1021E000880580E48093890580E180938A0580E5F5
:1021F00080938B0584E0809385058CE00E94030D1D
:10220000C093860586E00E94030D68EE73E080E0CF
:1022100090E00E94AA0BC12CD12C76014AE0C701A4
:10222000B6010E94DC0E0E94970D64EF71E080E021
:1022300090E00E94AA0B8FEFC81AD80AE80AF80AA1
:102240008AE0C816D104E104F10441F7E091870562
:10225000E23010F4E15001C0E1E0F0E0EF57FA4F56
:102260008781805F80680E94030D80918605982F8A
:1022700091609093860585600E94030DC12CD12C3E
:1022800076014AE0C701B6010E94DC0E0E94970D5C
:1022900064EF71E080E090E00E94AA0B8FEFC81A13
:1022A000D80AE80AF80A8AE0C816D104E104F10461
:1022B00041F7809186058E7F8093860584600E9419
:1022C000030D81E00E94030D80918505982F926097
:1022D000909385058A600E94030DC0910001D09102
:1022E0000101CB35D1054CF5CD34D10539F48091C0
:1022F00086058D7F8093860584600AC0C335D1052D
:1023000049F480918605982F9260909386058660A7
:102310000E94030D6C2F81E895E00E9458080E94EE
:10232000970D64EF71E080E090E00E94AA0B219687
:10233000D0930101C0930001D0CF809185058D7F9E
:102340008093850588600E94030D81E00E94030D43
:102350004DE050E067E471E081E895E00E942407D9
:102360000E94970D64EF71E080E090E00E94AA0B5C
:10237000CDE0D0E088E10E94030D0E94970D66E950
:1023800070E080E090E00E94AA0B219799F764EF3B
:1023900071E080E090E00E94AA0BCDE1D0E08CE1FA
:1023A0000E94030D0E94970D66E970E080E090E0C6
:1023B0000E94AA0B219799F764EF71E080E090E00A
:1023C0000E94AA0BC0E1D0E088E10E94030D0E94A8
:1023D000970D66E970E080E090E00E94AA0B2197DB
:1023E00099F780918505982F9260909385058A6072
:1023F0000E94030D80918505982F9160909385052B
:1024000089600E94030D88EEC82E83E0D82EE12C4F
:10241000F12CE0918705E23010F4E15001C0E1E0D9
:10242000F0E0EF57FA4F878180680E94030D2FB7C5
:10243000F8946091570170915801809159019091E1
:102440005A012FBFA70196010E94CA12CA01B90101
:102450004AE00E94DC0E0E94970DDBCFCF93DF9302
:1024600010920B0610920A0688EE93E0A0E0B0E00E
:1024700080930C0690930D06A0930E06B0930F0662
:1024800089E191E090930906809308068FEF9FEF12
:10249000909315068093140610928405109283057C
:1024A0008FE391E0909382058093810510929000D4
:1024B0008DE08093910080E090E29093990080936A
:1024C000980082E08093710081E08093F60510927D
:1024D000F4051092F5058FEF8093FB05ECE8F5E02D
:1024E00084EF95E011928E179F07E1F78FE58093B7
:1024F000B405D2E0D09387051092880580E48093DC
:102500008905C0E1C0938A0580E580938B0584E04E
:10251000809385058CE00E94030DD093860586E0AC
:102520000E94030D10926D0510926C0510927305B8
:1025300010927405C0937505109272051092710582
:10254000109277058BE291E090936B0580936A057A
:1025500089E391E090936F0580936E0510927A0560
:102560001092790510927C0510927B0581E0809392
:102570007D0510927E0580937F0510928005DF9186
:10258000CF910895F999FECF92BD81BDF89A992710
:1025900080B50895A1E21A2EAA1BBB1BFD010DC038
:1025A000AA1FBB1FEE1FFF1FA217B307E407F50703
:1025B00020F0A21BB30BE40BF50B661F771F881FDF
:1025C000991F1A9469F760957095809590959B0175
:1025D000AC01BD01CF010895EE0FFF1F0590F491EE
:1025E000E02D099481E090E0F8940C94F712F894AF
:0225F000FFCF1B
:1025F2004100FFFFFFFF00E100000000000000C1FA
:10260200808100000000000000580C7D0C790C6EE7
:102612000C4E067C0FA208000000004E0724079F04
:10262200089E08AE0FFCFF0000EF0F0000000058EC
:102632000824079F089E0848454C4C4F2C20574FB2
:06264200524C442100008F
:00000001FF
